:100000004FEF02F00000000000EF00F000000000E1
:0A0010000000000000000000F3D71C
:10001C00560E0C6EB50E0D6E0D2EFED70C2EFCD79B
:06002C00000000001200BC
:0E003200030E0D6E0D2EFED700000000120012
:0E004000C70E0D6E0D2EFED700000000120040
:10004E00086A096A100E0C6E01340836093604501F
:10005E00085E0550D8A0053C095ED8B007D0045004
:10006E0008260550D8B0053C0926D8900036013632
:06007E000C2EEAD712006F
:1000840034BE02D08A9E01D08A8E34BC02D08A9CAF
:1000940001D08A8C34BA02D08A9A01D08A8A34B8C0
:1000A40002D08A9801D08A8819B002D08A8401D0FB
:1000B4008A948A86BCDF8A9634B602D08A9E01D09E
:1000C4008A8E34B402D08A9C01D08A8C34B202D095
:1000D4008A9A01D08A8A34B002D08A9801D08A8858
:1000E40019B002D08A8401D08A948A86A0DF8A96C5
:0C00F40019A002D091DF01D0A1DF1200A2
:0E010000570E0D6E0D2EFED7000000001200EF
:10010E00316A050E315C0AE231502F24E16E000E89
:10011E003020E26E200EE66E312AF3D731502F24B6
:10012E00E16E000E3020E26EE66A310631502F2469
:10013E00326E000E3020336E0A0E046E000E056E07
:10014E002DC000F02EC001F07BDF08C000F009C00A
:10015E0001F0300E002632C0E1FF33C0E2FF00C0D6
:10016E00E6FF0A0E046E000E056E2DC000F02EC0C6
:10017E0001F066DF00C02DF001C02EF0000E011858
:10018E0002E1000E001801E102D03106CFD71200B5
:0C019E0019902DC034F06FDF19801200A2
:1001AA000FD0800E236E19D0C00E236E16D0940E77
:1001BA00236E13D0D40E236E10D0800E236E0DD072
:1001CA002350010AEEE02350020AEEE02350030A0C
:1001DA00EEE02350040AEEE0F0D72404006E235028
:1001EA00002600C023F000C034F047DF1990276AC8
:1001FA0027502524E96E000E2620EA6EEE520BE007
:10020A0027502524E96E000E2620EA6EEECF2DF047
:0A021A00C1DF272AEDD7198012007A
:10022400C26A070EC012C08E23C000F000360090D0
:10023400003600900050C212C28060DFC282C2A2A7
:1002440001D0FDD7C4CF01F0006AC3500012000EE4
:060254000112C29012002D
:10025A00FF0E156EFF0E166EFF0E176EFF0E186E4E
:0C026A00C26A070EC012C08EC2801200D3
:10027600939693949398939A939C939E8A968A9432
:100286008A9E8A9C8A9A8A98C6DEC5DEC4DE8A8AD7
:100296008A888A86CBDE8A96BEDE8A86C7DE8A96FC
:1002A600BADE8A86C3DE8A96B6DE8A988A86BEDE7D
:1002B6008A96B1DE8A86BADE8A968A9A8A8E8A8675
:1002C600B5DE8A96A8DE8A9E8A888A86AFDE8A96F8
:1002D6008A988A86ABDE8A969EDE8A86A7DE8A960C
:1002E6008A888A86A3DE8A9696DE8A988A869EDE23
:1002F6008A968A8E8A8C8A8A8A888A8697DE8A96DF
:060306008ADE19801200DE
:10030C000900F5CFE6FF0006FBE10106F9E112005A
:10031C00296A2A6A23C02BF024C02CF0800E2418E2
:10032C00006E800E005C02E1000E235C0BE2010EFD
:10033C00296E000E2A6E235000082B6E24C02CF060
:10034C00000E2C562BC02DF02CC02EF025C02FF0FB
:10035C0026C030F0D6DE060E276E000E286E000E7C
:10036C00006E2850005C02E12750000819E227506B
:10037C002524E16E28502620E26E010E275C006ECB
:10038C00000E2858016E00502524E96E01502620DD
:10039C00EA6EEECFE6FF010E275E000E285ADFD77D
:1003AC0025C0E1FF26C0E2FF200EE66E29502A1080
:1003BC001AE0276A286A27502524E96E285026203F
:1003CC00EA6EEE50200A03E1274A282AF4D7010EE0
:1003DC00275E000E285A27502524E16E285026202F
:0803EC00E26E2D0EE66E120018
:1003F4000FD0800E236E19D0C00E236E16D0940E2B
:10040400236E13D0D40E236E10D0800E236E0DD025
:100414002350010AEEE02350020AEEE02350030ABF
:10042400EEE02350040AEEE0F0D72404006E2350DB
:10043400002600C023F0198000C034F021DE19909A
:0A04440025C034F01DDE19801200FF
:10044E000B6A0A6A096A00500402F4CF09F0F3CF6E
:10045E0008F001500502F4CF0BF0F3CF0AF0005074
:10046E000502F3500926F4500A22E86A0B220150C5
:10047E000402F3500926F4500A22E86A0B2208C03F
:10048E0000F009C001F00AC002F00BC003F0120028
:10049E00EBDE956AFF0E926E0E0EC16E070EB41253
:1004AE00D5DE010E346EE7DD0C0E346EE4DD236A0C
:1004BE00B2DE00C01AF001C01BF0010E236E010E59
:1004CE00246E050E046E000E056EBADF0A0E046E63
:1004DE0000C002F001C003F0045005E00332023206
:1004EE00039EFF0FFAD7300E0224256E7CDF010E1D
:1004FE00236E020E246E2E0E256E75DF010E236EF8
:10050E00030E246E320E006E000E016E1AC004F041
:10051E001BC005F095DF0A0E046E00C002F001C08C
:10052E0003F0045005E003320232039EFF0FFAD7A8
:10053E0002C000F003C001F00A0E046E000E056E3C
:10054E007FDD08C000F009C001F0300E0024256EDA
:10055E004ADF010E236E040E246E140E006E000E82
:10056E00016E1AC004F01BC005F06ADF290E046E7E
:10057E00000E056E65DD0A0E046E000E056E60DD62
:10058E0008C000F009C001F0300E0024256E2BDFEC
:10059E00010E236E050E246E560E256E24DF1AC034
:1005AE0023F01BC024F01C0E256E000E266EAFDE4F
:1005BE00020E236E246A1C0E256E000E266EEEDDD4
:1005CE000B0E0B6EF60E0C6E280E0D6E0D2EFED74C
:0E05DE000C2EFCD70B2EFAD7000069D7FFD7E2
:020000040030CA
:0E000000020E1F1EFF8181FF0FC00FE00F4098
:00000001FF
