:1000000032EF03F00000000000EF00F000000000FD
:0A0010000000000000000000F3D71C
:0E001C00026A016A006A086A036A000E120096
:10002A00086A096A100E0C6E013408360936045043
:10003A00085E0550D8A0053C095ED8B007D0045028
:10004A0008260550D8B0053C0926D8900036013656
:06005A000C2EEAD7120093
:100060000B840BAE3BEF00F0010E036E026A016AD7
:0A007000006A0A360232FF0E120089
:08007A000AAE029E000E120006
:100082000B820BAE4BEF00F0036802680168006858
:080092000A360232FF0E1200D3
:10009A000C6A0E6A0250D8A466EF00F001C002F0A2
:1000AA0000C001F0006A0E860250D8A466EF00F084
:1000BA0001C002F0016A0E960E880250D8B478EF99
:1000CA0000F00E50035ED8A4D8A07DEF00F0D890BF
:1000DA0002BE82EF00F0003601360236032E6DEFC3
:1000EA0000F07DEF00F0010E0C6E93DF85EF00F05B
:1000FA00020E0C6EB0DF85EF00F0040E0C6EB8DF56
:02010A001200E1
:10010C000B800BAE92EF00F0026A0AAEFF0E026E8D
:0C011C00016E006E0A360232FF0E120067
:0E012800ACB202D00000FCD7A1C0ADFF1200A7
:0C013600240E0D6E0D2EFED700001200EE
:100142000001A56B050EA55D0AE2A551A325E16E8E
:10015200000EA421E26E200EE66EA52BF3D7A55168
:10016200A325E16E000EA421E26EE66AA507A55161
:10017200A325A66F000EA421A76F0A0E046E000E1F
:10018200056EA1C000F0A2C001F04EDF08C000F071
:1001920009C001F0300E0026A6C0E1FFA7C0E2FFB1
:1001A20000C0E6FF0A0E046E000E056EA1C000F04C
:1001B200A2C001F039DF00C0A1F001C0A2F0000E20
:1001C200011802E1000E001801E102D0A507CFD705
:0201D200120019
:1001D4000001996B9A6B97C003F098C004F097C024
:1001E40005F098C006F003C0E9FF04C0EAFFEE5032
:1001F400200A04E199519A1101E110D0010E996F7E
:10020400000E9A6F03C0E9FF04C0EAFF05C0E1FFD6
:1002140006C0E2FFEECFE6FF054A062A03C001F05E
:1002240004C002F0034A042A01C0E9FF02C0EAFF45
:10023400EE50000AD8E197C000F098C001F0120017
:10024400FF0E416EFF0E426EFF0E436EFF0E446EB4
:0C025400C26A070EC012C08EC2801200E9
:10026000280E356E010E366EA10E376E000E386EFA
:10027000FF0E316EFF0E326E000E336E000E346EC6
:10028000FF0E3D6EFF0E3E6E000E3F6E000E406E86
:10029000FF0E396EFF0E3A6E000E3B6E000E3C6E86
:1002A000AC8A900EAB6E948E949C9EAA03D0AECF77
:0602B00000F0FBD7120074
:1002B6000050086E0150006E016A026A036A0B6AFA
:1002C6000C6A960E036E0A6A00C001F008C000F0C0
:0802D600086A026ADFDE120073
:1002DE00C26A070EC012C08E97C000F000360090A2
:1002EE00003600900050C212C2801EDFC282C2A22F
:1002FE0001D0FDD7C4CF01F0006AC3500012000E2A
:06030E000112C290120072
:1003140000019A6B97C0E9FF98C0EAFFEECF99F00D
:100324009951000A0EE099C0A1F0FCDE00019A2B5D
:100334009A519725E96E000E9821EA6EEECF99F056
:04034400EFD71200DD
:10034800086A096A000E0762036429EF02F0025086
:1003580006180A6E075003267E0ED8A0BAEF01F0E1
:10036800035ED8B02DEF02F0BEEF01F0035ED8A017
:1003780031EF02F0028E068E02C00EF001C00BF0C3
:1003880000C00DF000500402F4CF0CF0015005023B
:10039800F4CF00F0F3CF08F00402F3500C26F45029
:1003A8000822000E00220D500502F3500C26F450CE
:1003B8000822000E002202500402F3500826F450CE
:1003C800002202500502016A000E0122F3500026A5
:1003D800F45001220D500602F3500826F450002272
:1003E800026A000E012202220B500602F350002678
:1003F800F4500122000E02220E500602F35001268C
:10040800F450022202BE11EF02F00836003601361F
:1004180002360306D8B431EF02F024EF02F0D88098
:10042800800E08640030000E002201220222D8A0AB
:1004380024EF02F0023201320032034A2DEF02F0BB
:100448000AAE029E000E33EF02F0010EE3DD33EF39
:1004580002F0020E12DE33EF02F0040EFDDD120090
:100468000900F5CFE6FF0006FBE10106F9E11200FD
:1004780000019D6B9E6B97C09FF098C0A0F0800E06
:100488009819006E800E005C02E1000E975D0BE289
:10049800010E9D6F000E9E6F975100089F6F98C0C8
:1004A800A0F0000EA0579FC0A1F0A0C0A2F099C074
:1004B800A3F09AC0A4F041DE060E9B6F000E9C6F5D
:1004C800000E006E9C51005C02E19B51000819E28D
:1004D8009B519925E16E9C519A21E26E010E9B5D1C
:1004E800006E000E9C59016E00509925E96E01506E
:1004F8009A21EA6EEECFE6FF010E9B5F000E9C5B31
:10050800DFD799C0E1FF9AC0E2FF200EE66E9D5149
:100518009E111AE09B6B9C6B9B519925E96E9C512F
:100528009A21EA6EEE50200A03E19B4B9C2BF4D7EC
:10053800010E9B5F000E9C5B9B519925E16E9C51BF
:0A0548009A21E26E2D0EE66E1200FD
:100552002B6A2C6A800E2C18006E800E005C02E161
:100562003C0E2B5C10E21A0E0B6E5E0E0C6E6E0EC3
:100572000D6E0D2EFED70C2EFCD70B2EFAD70000D7
:080582002B4A2C2AE7D71200D6
:10058A000B6A0C6A0A6A0350D8B40FEF03F0028EA2
:10059A008E0E035E03BED7EF02F0D8B4D7EF02F097
:1005AA0013EF03F0036C080E035CD8A0EEEF02F021
:1005BA00036E013602C001F0026A080E035CD8A07D
:1005CA00EEEF02F00136016A0350D8A4D890F8EF92
:1005DA0002F00350D8B4F8EF02F0D8900232013298
:1005EA00032EF2EF02F00BBC01A005EF03F0D8A036
:1005FA0005EF03F0012AD8B4022A02BE22EF03F063
:10060A000AAE27EF03F0021E011E012AD8B4022AFD
:10061A0027EF03F0026A016A27EF03F00B800BAEA3
:10062A002BEF03F0026A0AAE2BEF03F0FF0E026E05
:10063A00016E0A3602322BEF03F0010E0C6E61DDF9
:10064A002DEF03F0000E0C6E2DEF03F0FF0E0C6E73
:0A065A000150006E0250016E120004
:10066400B886020EB06E080EAF6EAC84F7DD090ECC
:10067400C16E070EB412E4DD0001976B2EDE19DEA5
:10068400C70E046E290E056E7A0E066E7D0E076E79
:1006940059DE79DF00C029F001C02AF04E0E0C6E3D
:1006A400EB0E0D6E0D2EFED70C2EFCD7010E0001A5
:1006B400976F13DEFEDDC70E046E290E056E7A0EEB
:1006C400066E7D0E076E3EDE5EDF00C02FF001C0B9
:1006D40030F04E0E0C6EEB0E0D6E0D2EFED70C2E62
:1006E400FCD7020E0001976FF8DDE3DDC70E046E40
:1006F400290E056E7A0E066E7D0E076E23DE43DF2D
:1007040000C02DF001C02EF04E0E0C6EEB0E0D6EDF
:100714000D2EFED70C2EFCD7030E0001976FDDDDE6
:10072400C8DDC70E046E290E056E7A0E066E7D0EA8
:10073400076E08DE28DF00C027F001C028F04E0E47
:100744000C6EEB0E0D6E0D2EFED70C2EFCD7040E88
:100754000001976FC2DDADDDC70E046E290E056E74
:100764007A0E066E7D0E076EEDDD0DDF00C017F00C
:1007740001C018F04E0E0C6EEB0E0D6E0D2EFED752
:100784000C2EFCD7050E0001976FA7DD92DDC70E76
:10079400046E290E056E7A0E066E7D0E076ED2DD8E
:1007A400F2DE00C015F001C016F04E0E0C6EEB0E1A
:1007B4000D6E0D2EFED70C2EFCD729C097F02AC043
:1007C40098F0200E0001996F000E9A6F53DE200EF0
:1007D400976F000E986FFCDC2FC097F030C098F034
:1007E400190E996F000E9A6F45DE190E976F000E61
:1007F400986FEEDC2DC097F02EC098F04C0E996FD8
:10080400000E9A6F37DE4C0E976F000E986FE0DC87
:1008140027C097F028C098F0450E996F000E9A6F84
:1008240029DE450E976F000E986FD2DC17C097F043
:1008340018C098F05A0E996F000E9A6F1BDE5A0E6C
:10084400976F000E986FC4DC15C097F016C098F02F
:10085400530E996F000E9A6F0DDE530E976F000EB4
:10086400986FB6DC440E616F610E626F740E636F35
:10087400610E646F310E656F666B610E976F000ECB
:10088400986F46DD200E676F200E686F696B670EE8
:10089400976F000E986F3CDD200E976F000E986FD7
:1008A40037DD0D0EA16F3EDC0A0E0001A16F3ADCAC
:1008B400440E00016A6F610E6B6F740E6C6F610EF3
:1008C4006D6F320E6E6F6F6B6A0E976F000E986FBE
:1008D4001FDD200E706F200E716F726B700E976F9C
:1008E400000E986F15DD190E976F000E986F10DDCE
:1008F4000D0EA16F17DC0A0E0001A16F13DC440E6C
:100904000001736F610E746F740E756F610E766FF4
:10091400330E776F786B730E976F000E986FF8DC59
:10092400200E796F200E7A6F7B6B790E976F000E15
:10093400986FEEDC4C0E976F000E986FE9DC0D0E8D
:10094400A16F94EC00F00A0E0001A16F94EC00F08A
:10095400440E00017C6F610E7D6F740E7E6F610E1C
:100964007F6F340E806F816B7C0E976F000E986FD3
:10097400CFDC200E826F200E836F846B820E976F04
:10098400000E986FC5DC450E976F000E986FC0DCA3
:100994000D0EA16F94EC00F00A0E0001A16F94EC0F
:1009A40000F0440E0001856F610E866F740E876F30
:1009B400610E886F350E896F8A6B850E976F000EF6
:1009C400986FA6DC200E8B6F200E8C6F8D6B8B0EB8
:1009D400976F000E986F9CDC5A0E976F000E986FFD
:1009E40097DC0D0EA16F94EC00F00A0E0001A16FCC
:1009F40094EC00F0440E00018E6F610E8F6F740E44
:100A0400906F610E916F360E926F936B8E0E976F8F
:100A1400000E986F7DDC200E946F200E956F966B00
:100A2400940E976F000E986F73DC530E976F000E41
:100A3400986F6EDC0D0EA16F94EC00F00A0E0001AD
:100A4400A16F94EC00F00D0E0001A16F94EC00F086
:100A54000A0E0001A16F94EC00F079DD2B6A2C6A78
:040A64000BD6FFD7D7
:060A6800446174613100DD
:030A6E0020200045
:060A7100446174613200D3
:030A77002020003C
:060A7A00446174613300C9
:030A800020200033
:060A8300446174613400BF
:030A89002020002A
:060A8C00446174613500B5
:030A920020200021
:060A9500446174613600AB
:030A9B0020200018
:020000040030CA
:0E000000000C1F1EFF8181FF0FC00FE00F409C
:00000001FF
