:020000001029C5
:10000600313083120313FD00FD0B072800000000AA
:020016000800E0
:080018000000000000000800D8
:10002000163083120313FC006C30FD00FD0B162804
:08003000FC0B1628000008007B
:1000380083120313D31B2228861123288615531BEA
:100048002728061128280615D31A2C2886102D28AB
:100058008614531A31280610322806144C183628EC
:1000680006163728061286160C208612D3193E2843
:1000780086113F288615531943280611442806156A
:10008800D318482886104928861453184D28061076
:100098004E2806144C18522806165328061286169F
:1000A8000C2086124C1C5A2810205B2803200800BC
:0E00B800831203134B088A004A0882000800D6
:1000C600831203134C105208D3001C204C14080052
:1000D6007D28803083120313CE009028C030CE00D6
:1000E60090289430CE009028D430CE0090288030CE
:1000F600CE009028831203134E08013A03196C2888
:100106004E08023A031971284E08033A0319742857
:100116004E08043A031977287A284F03F0004E0850
:10012600F0077008CE007008D3001C204C10D101D7
:1001360051085007840000080319A92851085007E0
:1001460084000008D2006320D10A9B284C140800C2
:1001560083160313861206120610861006118611E0
:1001660083128612061286110611861006101020BA
:10017600102010208614061486160C2086121020D5
:1001860086160C208612102086160C208612102049
:10019600061086160C208612102086160C20861253
:1001A6008610861586160C208612102086110614D7
:1001B60086160C208612061086160C208612102033
:1001C60086160C208612061486160C20861210201F
:1001D600061086160C208612861506158614061439
:0C01E60086160C20861210204C14080015
:1001F200753083120313FC00E130FD00FD0BFF2874
:06020200FC0BFF280800C0
:100208005C208A110A128000840ACA0A0319CB0AE0
:08021800F003031D0429080096
:10022000AA210630831603139F00AB200130D300B0
:100230001C200C30D3001C200130CE000630CF0033
:100240004230D0006B200230CE000630CF003A3072
:10025000D0006B200430FB000C30FC003330FD007C
:10026000FD0B3029FC0B3029FB0B3029000000006E
:100270000130D3001C200130CE000130CF002930E6
:10028000D0006B200230CE000530CF002030D000EF
:100290006B200430FB000C30FC003330FD00FD0B04
:1002A0004F29FC0B4F29FB0B4F2900000000CD010B
:1002B00004304D02031862291C30D3001C20F920A1
:1002C000CD0A5829CD0108304D0203186D29183088
:1002D000D3001C20F920CD0A6329CD0108304D023E
:1002E000031878291C30D3001C20F920CD0A6E2970
:0402F00062297929DD
:10035400203084002A3083120313F0007F30CA0057
:080364000130CB000421080068
:1002FE0045346134733479345034493443343634AC
:02030E000034B9
:100310006D3469346B3472346F3445346C34653405
:100320006B34743472346F346E3469346B346134CA
:02033000003497
:100332006534783461346D3470346C34653400342F
:100342004C34633464343434623469347434003485
:02400E004A2F37
:00000001FF
