:020000001229C3
:10000600313083120313FD00FD0B072800000000AA
:020016000800E0
:080018000000000000000800D8
:10002000163083120313FC006C30FD00FD0B162804
:08003000FC0B1628000008007B
:1000380083120313C71B2228861123288615471B02
:100048002728061128280615C71A2C2886102D28B7
:100058008614471A31280610322806144118362803
:1000680006163728061286160C208612C7193E284F
:1000780086113F2886154719432806114428061576
:10008800C718482886104928861447184D2806108E
:100098004E280614411852280616532806128616AA
:1000A8000C208612411C5A2810205B2803200800C7
:0E00B8008312031340088A003F0882000800EC
:1000C6008312031341104608C7001C204114080080
:1000D6007D28803083120313C2009028C030C200EE
:1000E60090289430C2009028D430C20090288030E6
:1000F600C2009028831203134208013A03196C28A0
:100106004208023A031971284208033A031974286F
:100116004208043A031977287A284303F000420874
:10012600F0077008C2007008C7001C204110C50106
:1001360045084407840000080319A9284508440710
:1001460084000008C6006320C50A9B2841140800E5
:1001560083160313861206120610861006118611E0
:1001660083128612061286110611861006101020BA
:10017600102010208614061486160C2086121020D5
:1001860086160C208612102086160C208612102049
:10019600061086160C208612102086160C20861253
:1001A6008610861586160C208612102086110614D7
:1001B60086160C208612061086160C208612102033
:1001C60086160C208612061486160C20861210201F
:1001D600061086160C208612861506158614061439
:0C01E60086160C20861210204114080020
:1001F200623083120313FC006530FD00FD0BFF2803
:0A020200FC0BFF28000000000800BC
:10020C005C208A110A128000840ABF0A0319C00AF2
:08021C00F003031D0629080090
:100224003D3083120313A0006B30A100A2016330A0
:10023400A300A4016930A500A6012930A700A801E4
:100244003A30A900AA012030AB00AC013A30AD002D
:10025400AE013B30AF00B0016130B100B2014630B5
:10026400B300B4017930B500B6017230B700B801FB
:100274006130B900BA016A30BB00BC015230BD0024
:10028400BE01073083169C000F309F00AB20013065
:10029400C7001C200C30C7001C200130C2000130F4
:1002A400C3002008C4006B20F9200130C2000230D2
:1002B400C3002530C4006B20F9200130C200033094
:1002C400C3002330C4006B20F9200130C200043085
:1002D400C3002130C4006B20F9200130C200053076
:1002E400C3003530C4006B20F9200230C200013055
:1002F400C3003330C4006B20F9200230C200023046
:10030400C3003130C4006B20F9200230C200033036
:10031400C3003B30C4006B20F9200230C20004301B
:10032400C3003930C4006B20F9200230C20005300C
:10033400C3003730C4006B207530FC00E130FD0091
:10034400FD0BA229FC0BA2290230C2000630C30017
:100354002B30C4006B20F9200230C2000730C300E8
:100364002930C4006B20F9200230C2000830C300D9
:100374002730C4006B20F9200230C2000730C300CC
:100384002F30C4006B20F9200230C2000730C300B4
:0C0394002D30C4006B20F920BE29CF29B9
:02400E00C82FB9
:00000001FF
