:020000001628C0
:0E0006008312031321088A00200882000800DC
:1000140003208A110A128000840AA00A0319A10A83
:08002400F003031D0A28080087
:10002C008B018316031386018030831286001030F7
:10003C00FB003930FC000D30FD00FD0B2328FC0BC0
:10004C002328FB0B232800000000403086001030D2
:10005C00FB003930FC000D30FD00FD0B3328FC0B90
:10006C003328FB0B332800000000203086001030B2
:10007C00FB003930FC000D30FD00FD0B4328FC0B60
:10008C004328FB0B43280000000010308600103082
:10009C00FB003930FC000D30FD00FD0B5328FC0B30
:1000AC005328FB0B5328000000000830860010304A
:1000BC00FB003930FC000D30FD00FD0B6328FC0B00
:1000CC006328FB0B6328000000000430860010300E
:1000DC00FB003930FC000D30FD00FD0B7328FC0BD0
:1000EC007328FB0B732800000000023086001030D0
:1000FC00FB003930FC000D30FD00FD0B8328FC0BA0
:10010C008328FB0B83280000000001308600103090
:10011C00FB003930FC000D30FD00FD0B9328FC0B6F
:0E012C009328FB0B9328000000001A289C2843
:02400E004A2F37
:00000001FF
